8=FIX.4.4|9=74|35=A|34=1|49=CLIENT1|52=20240327-08:11:37.818|56=SIMPLE|98=0|108=30|141=Y|10=241|8=FIX.4.4|9=56|35=0|34=2|49=CLIENT1|52=20240327-08:12:08.159|56=SIMPLE|10=152|8=FIX.4.4|9=56|35=0|34=3|49=CLIENT1|52=20240327-08:12:38.375|56=SIMPLE|10=156|8=FIX.4.4|9=56|35=0|34=4|49=CLIENT1|52=20240327-08:13:08.643|56=SIMPLE|10=153|8=FIX.4.4|9=56|35=0|34=5|49=CLIENT1|52=20240327-08:13:38.886|56=SIMPLE|10=166|8=FIX.4.4|9=56|35=0|34=6|49=CLIENT1|52=20240327-08:14:09.158|56=SIMPLE|10=158|